:100000000C94E4000C940C010C940C010C940C0165
:100010000C940C010C940C010C940C010C940C012C
:100020000C940C010C940C010C947D150C94EC15A3
:100030000C940C010C940C010C940C010C940C010C
:100040000C940C010C940C010C940C010C940C01FC
:100050000C940C010C940C010C940C010C943315B1
:100060000C940C010C940C010C940C010C940C01DC
:100070000C940C010C940C010C940C010C940C01CC
:100080000C940C010C940C010C940C010C940C01BC
:100090000C940C010C940C010C940C010C940C01AC
:1000A0000C940C010C940C010C940C01080B000234
:1000B0000202000009040000010202000005240001
:1000C0001001052401010104240206052406000193
:1000D0000705810310004009040100020A00000026
:1000E00007050202400000070583024000000403E8
:1000F000090412010002EF02014041233680000191
:100100000102030141726475696E6F204C4C43001B
:1001100041726475696E6F204C656F6E6172646FB9
:10012000000000000200090F0000030401000C00A1
:1001300000000000000000000000000000000000BF
:1001400000000000250028002B002E0031000000D8
:100150000000240027002A002D00300004040404BD
:10016000040304050202020204030202020206065C
:100170000606060604040202020404040802011032
:1001800040804010204080408008020401804020D0
:100190001002011080102040402005010902A10139
:1001A0008501050919012908150025019508750122
:1001B000810205010930093109381581257F75084B
:1001C00095038106C000511811241FBECFEFDAE05D
:1001D000DEBFCDBF23E0A0EBB1E001C01D92A33094
:1001E000B207E1F711E0A0E0B1E0ECEAFEE302C003
:1001F00005900D92A03BB107D9F710E0C4EED0E016
:1002000004C02197FE010E944C1DC33ED107C9F7CF
:100210000E949F190C94541F0C940000CF93DF93FD
:10022000FC01818190912F02482F490F5527551FBE
:10023000483051059CF5A281B381109709F52BE256
:1002400032E033832283208120932D0280932E027B
:1002500080913002820F808320913102A22FB091D1
:1002600032028A2F821B8917E8F481813D91C82FC1
:10027000D0E0C45FDE4F38838F5F8183F2CFD90136
:1002800018962D913C91199721153105C1F72BE254
:1002900032E019963C932E931897D5CF80E0DF91EA
:1002A000CF91089581E0FBCF8CBD9DBD089590E076
:1002B000FC01E558FE4F2491845A9E4FFC01849125
:1002C000882399F090E0880F991FFC01E25BFE4FB4
:1002D000A591B491FC01E05CFE4F859194918FB79C
:1002E000F894EC91E22BEC938FBF0895FC01809180
:1002F000D901882311F13FB7F89482E08093E90097
:100300002091F200822F90E01816190614F481E073
:1003100090E0882339F0289844E64093D801409132
:10032000F1004083222339F02091F200211103C013
:100330002BE62093E8003FBF08958FEF9FEF0895CD
:100340003FB7F8948091D4019091D501A091D60146
:10035000B091D70126B5A89B05C02F3F19F0019693
:10036000A11DB11D3FBFBA2FA92F982F8827BC010F
:10037000CD01620F711D811D911D42E0660F771F37
:10038000881F991F4A95D1F708958F929F92AF9237
:10039000BF92CF92DF92EF92FF924B015C010E94DD
:1003A000A0016B017C010E94A0016C197D098E09DE
:1003B0009F09683E734081059105A8F321E0821AE8
:1003C0009108A108B10888EEC80E83E0D81EE11C90
:1003D000F11C81149104A104B10429F7FF90EF905E
:1003E000DF90CF90BF90AF909F908F9008952FB7E0
:1003F000F8946091D0017091D1018091D2019091D7
:10040000D3012FBF08954091BF015091C0012091A9
:10041000BD013091BE0142175307B4F49091E8003A
:100420009570E1F39091E80092FD19C08093F1007E
:100430008091BF019091C00101968F739927892BFC
:1004400019F48EEF8093E8008091BF019091C00174
:1004500001969093C0018093BF0181E0089580E0F0
:100460000895DF92EF92FF920F931F93CF93DF9344
:10047000D82E8A01EB017B01E40EF51ECE15DF05B7
:1004800059F0D7FE12C0FE0184910E94030221960A
:100490008111F4CF0FEF1FEFC801DF91CF911F91B2
:1004A0000F91FF90EF90DF9008958881EECF2FB7E6
:1004B000F89487708093E9009091E800892F80720A
:1004C00095FF04C09091F20080E4891B2FBF08952E
:1004D0007F928F929F92AF92BF92CF92DF92EF92D4
:1004E000FF920F931F93CF93DF93C82E8B017A0156
:1004F0008091D901811110C08FEF9FEFDF91CF91D3
:100500001F910F91FF90EF90DF90CF90BF90AF9031
:100510009F908F907F9008958091C30180FF05C0C8
:100520008091E00082608093E000CE2DDF2DD12C01
:100530008AEFB82E8C2D8770982E8C2D8072882E85
:100540008C2D8074782E9AE3A92E209719F4DD2043
:1005500009F452C08C2D0E94570281110AC0BA942E
:10056000BB2051F261E070E080E090E00E94C501A4
:10057000ECCF8C171D0611F00CF08C2F9FB7F89460
:100580009092E9002091E80025FD02C09FBFDDCFD9
:10059000282F30E0C21BD30B882029F08150A0F017
:1005A0001092F100FBCFF801C7FC0AC0815050F057
:1005B00041914093F100FACF44914093F10031967C
:1005C0008150D0F7020F131FDD2021F0A092E80028
:1005D000D12CDCCF8091E80085FD07C0A092E80017
:1005E000DD24D394209791F2F3CF209779F67720EA
:1005F00069F2A092E800CACF5D9884E68093C201B8
:10060000C7017CCF615030F02091F100FC012083C4
:100610000196F8CF289884E68093D80108958091B8
:10062000B50181110DC082E08093B10184E0809317
:10063000B2011092B4011092B30181E08093B50130
:1006400081EB91E008951F93CF93DF9300D000D00A
:100650001F92CDB7DEB79091520299838A836B8344
:100660004C8380913C0281112AC011E010932F022B
:100670001093300285E392E090933202809331022E
:1006800010923402109233028BE391E090932C028B
:1006900080932B0210923702109236021092390288
:1006A0001092380210933A0210933B0281EC80932F
:1006B00035020E940F030E940E0110933C0281E05C
:1006C0008D8341E050E0BE016B5F7F4F80912E0231
:1006D0000E94680297FD0AC080912E0244E050E01B
:1006E000BE016F5F7F4F80640E9468020F900F9081
:1006F0000F900F900F90DF91CF911F9108959091DF
:10070000520280958923981739F08093520240E075
:1007100060E080E00C942303089590915202892BAD
:10072000981739F08093520240E060E080E00C942A
:10073000230308950F931F93CF93DF931F92CDB799
:10074000DEB782E0898342E450E06CEA70E080E842
:100750000E9431020E940F03DC0112960D911C9140
:100760000115110589F0D801ED91FC910280F3810A
:10077000E02DBE016F5F7F4FC801099597FD04C052
:10078000F80100851185ECCF89810F90DF91CF9121
:100790001F910F910895CF93DF93EC0180910B018E
:1007A000882331F083E00E9468021816190634F09D
:1007B00081E090E09B838A8380E090E0DF91CF919D
:1007C0000895CF93DF931F92CDB7DEB76983DC0125
:1007D000ED91FC910280F381E02D41E050E0BE01FB
:1007E0006F5F7F4F09950F90DF91CF91089583E060
:1007F0008093E9008091F200882319F08AE38093C6
:10080000E800089583E00E94570290E00895CF9396
:10081000DF931F92CDB7DEB7FC018485958597FDE8
:1008200008C02FEF3FEF358724870F90DF91CF91DE
:100830000895CE0101960E947601019719F48981ED
:1008400090E0F3CF8FEF9FEFF0CF0F931F930E94B5
:10085000F7016093E3017093E4018093E5019093C5
:10086000E6018BED91E00E94070497FF1DC00E94F6
:10087000F7010091E3011091E4012091E50130912D
:10088000E601601B710B820B930B0091DF0110914D
:10089000E0012091E1013091E201601771078207C8
:1008A0009307F8F28FEF9FEF1F910F9108950F9329
:1008B0001F93CF93DF931F92CDB7DEB78C01FC015E
:1008C0008485958597FF0BC0CE0101960E94760125
:1008D000019771F4898190E0F80195878487F80188
:1008E000848595850F90DF91CF911F910F91089589
:1008F0008FEF9FEFF1CFFC018485958597FD0BC0AD
:100900009FB7F89482E08093E9008091F2009FBF46
:1009100090E0019608959FB7F89482E08093E900F3
:100920008091F2009FBF90E00895DC01FB011296D8
:100930002C911297848195812817190641F4918191
:100940008081813A31F49D7F81E0913009F080E02F
:1009500008958132E1F79B3029F482811F968C93B0
:1009600081E008959A3099F7828150968C93F8CF60
:10097000DC01FB0188E4808389E4818384E4828351
:100980001D969C911D979F709F5B93831D968D91E3
:100990009C9124E0969587952A95E1F78F708F5B5F
:1009A000848385E00895EF92FF920F931F93CF9376
:1009B000DF93FB012081213871F52381223259F523
:1009C000DC0112964C91248135814217130619F5EA
:1009D000EC010B851C85F12CE12C0115110589F02A
:1009E000F801448155816281738180E80E9431025F
:1009F0008F3F980749F0E80EF91ED8010D911C9120
:100A0000ECCF81E08F87C701DF91CF911F910F91CC
:100A1000FF90EF90089590E080E0F6CFCF93DF93C2
:100A2000CDB7DEB769970FB6F894DEBF0FBECDBF66
:100A3000FC01DB018C918F5F8C939E012D5F3F4FFA
:100A40008DE0D9011D928A95E9F729E0298384E098
:100A50008A8391E09D8383E08E832A8721E22B871E
:100A60009C879D879F8722E2288B27E02B8B25E0A0
:100A70002C8B8E8B20E430E0388F2F8B998F8281E6
:100A80008B8395858685998B8A8B838180688D8BF6
:100A900049E150E0BE016F5F7F4F80E00E9431026C
:100AA00069960FB6F894DEBF0FBECDBFDF91CF9130
:100AB0000895CF93DF93EC018A819B81DC01ED9156
:100AC000FC910480F581E02D6A8509958A85813441
:100AD00039F4EA81FB81EA58FF4F8081846080838A
:100AE0001A861B861C861D861E861F86188A80E035
:100AF000DF91CF91089581E0693009F080E0089599
:100B0000FC01828508950F931F93CF93DF93FC011F
:100B10008B01EA0180819181892B31F192819923A6
:100B200049F128813981232BF9F0D8012D913C918D
:100B3000D9014C918381682F691B770B808191814A
:100B4000860F971FDC014C938281815082838881BC
:100B50009981019799838883D8018D919C911197F0
:100B600001968D939C93DACF80E0DF91CF911F9116
:100B70000F9108958381828381E0F7CFDF92EF9216
:100B8000FF920F931F93CF93DF93EC0185E0E62E46
:100B9000F12CFE01869FE00DF11D1124908596FF3A
:100BA00024C0192F177001E085E0D82E8FEF800F39
:100BB0008F3008F001E0602F70E0062FD69EF00124
:100BC000D79EF00D1124EC0FFD1F8085869586952C
:100BD00086958770181701F16F5F7F4F603168F35A
:100BE0008D81811302C011501D8385E08E9DF0011F
:100BF0008F9DF00D1124EC0FFD1F108681E0818781
:100C000012862296D783C683DF91CF911F910F91D1
:100C1000FF90EF90DF900895CE010E94BE05C6CFF1
:100C2000FC0120812EBD9B012150310941F05181F1
:100C30000DB407FEFDCF4EB55EBD4193F5CF6150BB
:100C40007109860F971F0DB407FEFDCF2EB5FC016D
:100C500020830895FC0121E0613499F49C01255B17
:100C60003F4F61E0AC014E5F5F4F15866687178688
:100C70005487438735962E173F07B9F7FC01158235
:100C800008953585631729F02F5F35962031C9F710
:100C90000895622F0C94BE05CF93DF93FC0167FD8E
:100CA00012C0283080F4442319F08581873059F030
:100CB000EF01A1E0B0E08D85882349F111962596DA
:100CC000A031B105C1F780E018C085E08A9FE0013E
:100CD0008B9FD00D1124CE0FDF1F442389F081E4B8
:100CE000888785818F5F858325E02A9FC0012B9FA0
:100CF000900D1124E80FF91F8085DF91CF910895A1
:100D000081E08887F1CF2770687B622B0FC0662354
:100D1000E1F26770660F660F660F4423A1F360640B
:100D200085818F5F85838770687F682B25E02A9F88
:100D3000C0012B9F900D1124E80FF91F6087862FAB
:100D4000DCCFFC0121E0611102C0069608953585D3
:100D5000631739F02F5F35962031C9F790E080E0B6
:100D60000895069635E0239F800D911D1124089566
:100D700081E008953F924F925F926F927F928F929F
:100D80009F92AF92BF92CF92DF92EF92FF920F931A
:100D90001F93CF93DF9300D000D0CDB7DEB76C01A7
:100DA0007A8369835C834B8384E0482E360182E139
:100DB000680E711C93E0392E5601A7E0AA0EB11CF3
:100DC00012E0552453944601B0E18B0E911C298109
:100DD0003A812115310509F4CDC0F60180A1823098
:100DE000F1F0A8F5882309F457C0813091F7AE01DE
:100DF0004F5F5F4FBE016D5F7F4FC5010E9483054E
:100E0000882309F4B7C0D6011596ED91FC91169789
:100E1000808191968C939197818192968C93F60123
:100E20007682658230A2D60192968C919297843018
:100E300011F493961C92F60181A18250848325813E
:100E40003681308727838287818740A205C083301F
:100E500051F3843009F0BDCFD60192968C919297D0
:100E6000843019F1853009F44BC0823009F075C027
:100E7000AE014F5F5F4FBE016D5F7F4FC5010E94A6
:100E80008305882309F476C0F601858984A3F601D9
:100E90009682858210A29BCF14838581968190874C
:100EA00087831287118750A2A2CFAE014F5F5F4F99
:100EB000BE016D5F7F4FC5010E948305882309F441
:100EC00059C0D60155968C915597833001F75696A7
:100ED0008C9156978130D9F698969C919897579611
:100EE0008C91992351F0882391F2F60153A29289B3
:100EF00096A3938997A385A3CACF823041F6F5CFF5
:100F0000AE014F5F5F4FBE016D5F7F4FC5010E9415
:100F10008305882379F1D60193968C919397882342
:100F200009F4B5CF12968D919C91009709F4AFCF3B
:100F3000DC01ED91FC910190F081E02D7401D6016E
:100F400095960C91959797962C91979796964C918C
:100F5000969794966C9109959ACFF601858588238A
:100F6000F9F0813041F1D6011E968D919C91892B2B
:100F700009F48DCF0F900F900F900F90DF91CF91CC
:100F80001F910F91FF90EF90DF90CF90BF90AF90A7
:100F90009F908F907F906F905F904F903F900895BB
:100FA00091968C9191978250990B1F969C938E935A
:100FB0001E971D965C9229813A818B819C81782FA6
:100FC000692FF601468557854115510581F0019637
:100FD0002115310539F04150510957874687215075
:100FE0003109EDCF7B836C831A821982BCCF9C833D
:100FF0008B833A8329831586B6CF0895EF92FF92AB
:10100000CF93DF93FC01E7018289823021F167876A
:10101000408B9B8193709330F1F49A8197FF1BC0B2
:101020002E81308D321708F4208F282F30E0D9011F
:10103000AA0FBB1FA20FB31FAE0FBF1F9F70179643
:101040009C9317979C8118969C93189794E01996F7
:101050009C938F5F828BDF91CF91FF90EF900895EB
:10106000EF92FF920F9302970E94FE070F91FF905D
:10107000EF900895FC018789089570E0660F771F4F
:10108000860F971FFC0185859685089581E0623063
:1010900009F080E0089581E0633009F080E0089570
:1010A000FC0186810895CF93DF93EC018C819D81B3
:1010B000DC01ED91FC910480F581E02D6E810995B4
:1010C0001F86188A81E08A8B1E821B8A1C8A1D8AD1
:1010D0001E8A1F8A80E0DF91CF9108952E9808958F
:1010E0002E9A089570E0660F771F860F971FFC01F8
:1010F0005687458781E00895EF92FF920F931F93E3
:10110000CF93DF937C01E8019881F70185818927DE
:1011100080FF05C081E090FF46C00E948D0398814A
:10112000F7018581892781FF05C082E091FF3EC0DC
:101130000E948D039881F7018581892782FF05C070
:1011400084E092FF36C00E948D039881F70185816B
:10115000892783FF05C088E093FF2EC00E948D037E
:101160009881F7018581892784FF05C080E194FF7C
:1011700026C00E948D0399818A81911102C0882323
:1011800021F09093CC018093CD018B8181118093CC
:10119000CE018881F7018583DF91CF911F910F9157
:1011A000FF90EF9008950E947F03B9CF0E947F03C4
:1011B000C1CF0E947F03C9CF0E947F03D1CF0E947D
:1011C0007F03D9CF089580E00895089580E00895C1
:1011D00008950F931F93CF93DF93D82FC62F8A01C3
:1011E00080E591E00E9454010E946E08D260DEBD4D
:1011F000F8018C2F882339F00DB407FEFDCF9191B3
:101200009EBD8150F7CFC00FD12FD11D0DB407FE69
:10121000FDCF0E947008CE01DF91CF911F910F91F9
:1012200008950F931F93CF93DF9300D0CDB7DEB710
:10123000182F062F80E591E00E9454010E946E084D
:10124000126019830A8362E070E0CE0101960E9469
:1012500010060E9470080F900F90DF91CF911F91A0
:101260000F9108959F92AF92BF92CF92DF92EF922B
:10127000FF920F931F93CF93DF936C01C42FD22F54
:1012800099249394E62EF12CEE0CFF1CE80EF91E27
:1012900086E5E80EF11CA42EB12CABE2AA0EB11C1F
:1012A000AA0CBB1CAC0CBD1CF70180819181DC0138
:1012B000ED91FC910280F381E02D202F4D2F6C2FBA
:1012C0000995182F803EC9F5C1112BC061E088EE49
:1012D0000E94110966E670E080E090E00E94C5017E
:1012E000F70180819181DC01ED91FC910190F08109
:1012F000E02D202F4D2F6C2F0995182F8D30D1F513
:101300008FEF890D8330F8F0C11137C061E088EEAE
:101310000E94110966E670E080E090E00E94C5013D
:101320001CC0F50180819181DC01ED91FC9102846A
:10133000F385E02D6D2F0995D3CF8D3061F48FEFBC
:10134000890D833050F464E670E080E090E00E9404
:10135000C5019394A9CF882319F2812FDF91CF91F2
:101360001F910F91FF90EF90DF90CF90BF90AF90C3
:101370009F900895882389F3C7CF8C2F90E08B9698
:10138000880F991F8C0D9D1DFC0180819181DC01CE
:10139000ED91FC910284F385E02D6D2F0995DDCF51
:1013A0008EBD00000DB407FEFDCF8EB50895CF931E
:1013B000C82F80E591E00E9454010E946E088C2F96
:1013C0000E94D00980E00E94D009C82F0E947008B6
:1013D0008C2FCF9108958F929F92AF92BF92CF9210
:1013E000DF92EF92FF920F931F93CF93DF93882E9C
:1013F000962E5A010E94F7016B017C0128E8C20E6B
:1014000023E1D21EE11CF11C10E000E0D0E0C0E0BE
:1014100098280E94F7016C197D098E099F0997FF92
:101420001EC0692D80EF0E9411090E94F7016C19FE
:101430007D098E099F0997FF09C088EC0E94D70992
:1014400087FFF3CF60E888EC0E94110988EF0E94C3
:10145000D709C82FCF70C43081F0CE30B9F08C2FAF
:10146000DF91CF911F910F91FF90EF90DF90CF9080
:10147000BF90AF909F908F9008950F5F1F4FA11462
:10148000B10439F20A151B0521F6E9CFDF5FD3302D
:1014900009F0BFCFE4CFAF92BF92CF92DF92EF922D
:1014A000FF920F931F93CF93DF93EC01B62EA42EE0
:1014B00069010E94A1067C0186EDE114F10409F4A2
:1014C00047C0D701ED91FC91119787ED309709F452
:1014D0003FC013969C9180E0981731F02081A216AE
:1014E00029F033968F5FF8CFF0E0E0E0D601ED937E
:1014F000FC938BED309761F1228126952695203162
:1015000008F02FE081E090E0A0E0B0E004C0880F98
:10151000991FAA1FBB1F2A95D2F70197F801918343
:1015200080836B2D80EE0E94110988ED0E94D709FF
:10153000D70114969C91682F697F992329F0CA5886
:10154000DF4F68816260682B88ED0E94110980E09E
:10155000DF91CF911F910F91FF90EF90DF90CF908F
:10156000BF90AF90089588EF0E94D709807C8034A7
:10157000B1F018F4882301F10895803819F0803C07
:10158000C9F0089588ED0E94D70981FD0DC069EC6E
:1015900088ED0E94110982E08093DA01089588EDB8
:1015A0000E94D70981FDF3CF6BEC88ED0E941109F1
:1015B00083E0F2CF81E0F0CF61ED88ED0E94110968
:1015C0001092DA0108952F923F924F925F926F929C
:1015D0007F928F929F92AF92BF92CF92DF92EF92C3
:1015E000FF920F931F93CF93DF937B013A01690121
:1015F000F901A080B180FB013180F90111821082D4
:10160000FB01828160E181FD60E288EE0E941109A8
:101610002A2CA301F701608180E00E94EB09582E7B
:10162000F6E08F1310C088EF0E94D709F70192816E
:101630009D7F84FF9260928360E191FD60E288EE7D
:101640000E941109E6CF811150C088EC0E94D70991
:1016500082FF5FC080E30E94D709482E8A151B04D1
:1016600011F008F0422CF60180819181E501C81B40
:10167000D90BD7FF02C0D0E0C0E0842C912C8C168F
:101680009D060CF4E40180E591E00E9454010E9463
:101690006E0888E00E94D009AE0170E060E0C801E9
:1016A0000E943D1F209721F0BE01C8010E94100634
:1016B0000C0F1D1F0E94700864E088EC0E94110945
:1016C000F60180819181880E991E91828082431457
:1016D00020F08A149B0408F49CCF88EF0E94D7095D
:1016E000F701928184FB91F99283852DDF91CF914F
:1016F0001F910F91FF90EF90DF90CF90BF90AF9030
:101700009F908F907F906F905F904F903F902F9021
:10171000089580EF582EE9CFAF92BF92CF92DF921B
:10172000EF92FF920F931F93CF93DF9300D000D0DF
:10173000CDB7DEB77C01690158011C821B821A8279
:1017400019828E010F5F1F4F9E012D5F3F4F0E9438
:101750004B0A811109C049815A816B817C818501C5
:101760009601C7010E94E30A0F900F900F900F900F
:10177000DF91CF911F910F91FF90EF90DF90CF906D
:10178000BF90AF9008952F923F924F925F926F92C9
:101790007F928F929F92AF92BF92CF92DF92EF9201
:1017A000FF920F931F93CF93DF93CDB7DEB765976B
:1017B0000FB6F894DEBF0FBECDBF3C01342E222EF3
:1017C000402EED8AEAA4FBA4188A1F861E861D8679
:1017D0008E01035F1F4F9E01215F3F4F40E00E943B
:1017E0004B0A582E811139C139822A824B822D89A8
:1017F0002C83DE82CD82B886AF82AE014F5F5F4F11
:1018000068E080E20E94E9084D855E8560E080E145
:101810000E94EB0981113FC1E114F10409F453C0A6
:101820000F851889D80112968C91129737FE51C0F6
:10183000826012968C93650144244394C114D104B0
:1018400009F42EC19C868B864D855E856F857889CF
:1018500087019E01255F3F4FC3010E94E30A582E76
:10186000B6E08B130EC088EF0E94D709EF85F88988
:1018700085FB882780F98425928180FB91F99283EA
:10188000DDCF8111EAC0ECA5FDA53097A1F06B85F5
:101890007C850190F081E02D0190F081E02DC50163
:1018A0008C199D099A8789879E01275F3F4FA70161
:1018B0008CA59DA509958B859C85C81AD90A881584
:1018C000990508F0BBCF4D855E8537FEE0C080EA04
:1018D000DFC0816012968C93129711966C908FEFF7
:1018E000860D803408F0D9C02D843E840E94F70113
:1018F0009B01AC0128573C4E4F4F5F4F298B3A8BD1
:101900004B8B5C8BD80112968C9160E880FF60E471
:1019100088EE0E941109512C712C8114910409F454
:101920008BC053018614970408F45401AD8AA701B3
:101930006A2D80E10E94E9086A2D88E30E9411095E
:10194000F8016081606280EF0E94110988EC0E94BA
:10195000D70987FFFBCF60E888EC0E94110988EF68
:101960000E94D7098F70582E412CD12CC12C5520A4
:1019700021F10E94F70129893A894B895C89621B10
:10198000730B840B950B97FF18C036E0531609F4C0
:101990003FC04EE05416B1F054E0551209C08FEF2D
:1019A000C81AD80A2114310489F02C143D0471F4AA
:1019B00060E088E30E94110941C08A189B08EA0C84
:1019C000FB1CABCF439493E0491691F360E088E3AE
:1019D0000E941109D7016C9180E10E9411096D8963
:1019E00088E30E941109F8016081606280EF0E9423
:1019F000110988EC0E94D70987FFFBCF60E888ECCB
:101A00000E94110988EF0E94D7098F70582EAFCF1E
:101A100088EF0E94D70985FB882780F9A1E08A27F3
:101A2000F801928180FB90F9928360E890FF60E476
:101A300088EE0E941109CACF5110BACF88EF0E94D8
:101A4000D709D80112969C91129785FB90F91296AE
:101A50009C934D855E855520D1F0852D65960FB6FA
:101A6000F894DEBF0FBECDBFDF91CF911F910F91D4
:101A7000FF90EF90DF90CF90BF90AF909F908F90AE
:101A80007F906F905F904F903F902F90089580E8E7
:101A900060E00E94EB09582EE0CF8AED582EDDCF92
:101AA0004D855E85552009F412CFD7CF8F929F9236
:101AB000AF92BF92CF92DF92EF920F931F931F923C
:101AC0001F921F930F934A015A01D12CC12C32E06F
:101AD000E32E022F26E040E80E94C30B0F900F90E8
:101AE0000F900F901F910F91EF90DF90CF90BF90CC
:101AF000AF909F908F9008958F929F92AF92BF92D8
:101B0000CF92DF92EF920F931F921F923F932F93EA
:101B10004A015A01D12CC12CEE24E39400E026E0C6
:101B200040E80E94C30B0F900F900F900F900F9101
:101B3000EF90DF90CF90BF90AF909F908F900895DF
:101B40008F929F92AF92BF92CF92DF92EF920F93BC
:101B5000CF931F921F921F921F92912C812CB12C18
:101B6000A12CD12CC12CE12C062F25E040E060E017
:101B70000E94C30BC82F6CE271E080E090E00E94ED
:101B8000C5010F900F900F900F908C2FCF910F9158
:101B9000EF90DF90CF90BF90AF909F908F9008957F
:101BA0002F923F924F925F926F927F928F929F926D
:101BB000AF92BF92CF92DF92EF92FF920F931F935B
:101BC000CF93DF93CDB7DEB767970FB6F894DEBF3C
:101BD0000FBECDBF1B8A38E03C8B3CE33D8B8A3F78
:101BE0003FEF9307D9F406ED802F67960FB6F89470
:101BF000DEBF0FBECDBFDF91CF911F910F91FF9040
:101C0000EF90DF90CF90BF90AF909F908F907F909C
:101C10006F905F904F903F902F900895122F342E29
:101C2000462E7C01DC011696CD90DC901797CE01F4
:101C3000439617969C938E9316971A962C939E0113
:101C40002F5F3F4F42E150E060E0C7010E947C0DF2
:101C5000582EF701D782C682082F8111C5CF8984FB
:101C60009A846B847C84FD81FE8B3E813F8B67016F
:101C700086E5C80ED11C5601212CD5018D919C9171
:101C80000097F1F52394B2E0AB0EB11CE0E12E1207
:101C9000F4CFF60180819181009709F070C05394D0
:101CA000F2E0CF0ED11C30E15312F3CFF701868161
:101CB000978107ED892B09F497CF1287232D40E0F8
:101CC000642DC7010E944C06D82E04ED882309F428
:101CD0008BCF682FC7010E94A106009709F483CF1C
:101CE000DC0114961C936D2DC7010E94A00D082FD6
:101CF000882309F479CF6D2DC7010E942A0674CF7D
:101D0000DC01ED91FC910084F185E02D09958111B4
:101D1000B9CFF50180819181DC01ED91FC910088C2
:101D2000F189E02D6F890995882309F4ABCFF5017E
:101D300080819181DC01ED91FC910484F585E02D99
:101D4000A301B4010995882361F0012F232D442DAF
:101D5000622DC7010E943209082F813D09F492CFFC
:101D600043CFF50180819181DC01ED91FC910684E6
:101D7000F785E02D6E8909958111E7CF83CFDC01CE
:101D8000ED91FC910084F185E02D0995811187CFBB
:101D9000F60180819181DC01ED91FC910088F1894F
:101DA000E02D6F89099581110DC0012F232D442D40
:101DB000652DC7010E943209082F877F813D09F0F8
:101DC00013CF6DCFF60180819181DC01ED91FC9103
:101DD0000484F585E02DA301B401099581115FCF3D
:101DE000F60180819181DC01ED91FC910684F785FB
:101DF000E02D6E8909958823C1F251CF8F929F9271
:101E0000AF92BF92CF92DF92EF920F93C42ED12C5C
:101E10001F921F921F921F92912C812CB12CA12CEA
:101E2000E12C062F21E043E2FC016285828193814F
:101E30000E94C30B0F900F900F900F900F91EF9097
:101E4000DF90CF90BF90AF909F908F9008958F922A
:101E50009F92AF92BF92CF92DF92EF920F93C62ED6
:101E6000D12C1F921F925F934F9324E0822E912CCE
:101E700034E0A32EB12CE12C00E020E043EAFC0189
:101E80006285828193810E94C30B0F900F900F9007
:101E90000F900F91EF90DF90CF90BF90AF909F90F9
:101EA0008F9008958F929F92AF92BF92CF92DF92C0
:101EB000EF920F93C42ED12C1F921F921F921F924C
:101EC000912C812CB12CA12CE12C062F23E043E294
:101ED000FC016285828193810E94C30B0F900F9059
:101EE0000F900F900F91EF90DF90CF90BF90AF9039
:101EF0009F908F900895CF92DF92EF92FF921F9361
:101F0000CF93DF93EC01162F7A01FA018081918142
:101F1000A281B3818130F3E09F07F1E0AF07B10503
:101F2000C9F170F48115E1E09E07AE07B10509F42F
:101F300050C081309140A140B10561F180E041C0C5
:101F4000833021E0920720E1A207B10529F0833018
:101F50009340A041B10591F7412F64E1CE010E9469
:101F6000FE0E412F60E1CE010E94FE0E64E170E0A2
:101F700080E090E00E94C5016A85F70121812695E5
:101F800021706770412F8A819B810E94D00D109231
:101F9000B001D4CF8091B0018111D0CF412F61E148
:101FA000CE010E94FE0E412F60E1CE010E94FE0E86
:101FB000412F64E0CE010E94520F81E08093B00176
:101FC00081EBDF91CF911F91FF90EF90DF90CF9049
:101FD0000895462F61E1CE010E94FE0E412F60E17F
:101FE000CE010E94FE0E1092B0018A858770177094
:101FF000880F880F880F182B09F4A0CFEA80FB8088
:102000006701F6E5CF0ED11CD0E0C0E0D6018D917E
:102010009D916D010097C1F0DC01ED91FC91008470
:10202000F185E02D099518130FC0AB96CC0FDD1F7D
:10203000CE0DDF1D88819981DC01ED91FC9104803A
:10204000F581E02D09957ACF2196C031D105F1F6C1
:1020500075CFCF92DF92EF92FF920F931F93CF93A2
:10206000DF93CDB7DEB72E970FB6F894DEBF0FBE65
:10207000CDBFFC012089211111C010E0812F2E96C7
:102080000FB6F894DEBF0FBECDBFDF91CF911F9189
:102090000F91FF90EF90DF90CF9008957C010E9408
:1020A000F701F7010485158526853785601B710BBF
:1020B000820B930B97FDE1CF81E090E09E878D87A7
:1020C0008E010F5F1F4F9E01235F3F4F41E06285EE
:1020D000828193810E948C0B182F811121C082E094
:1020E000D82E01E089818D2139F119861A861B8647
:1020F0001C86AE01475F5F4F602FC7010E94270F0C
:10210000C82E811119C0AE01475F5F4F602FC70114
:102110000E947B0F813B19F0882371F0C82E1C2D83
:102120000E94F7016C597F4F8F4F9F4FF7016487D3
:10213000758786879787A2CFDD0C0F5F083091F6F1
:1021400001E0F7018385801758F319861A861B86EC
:102150001C86AE01475F5F4F602FC7010E94270FAB
:10216000D82E811117C089859A858770917081302A
:10217000914081F48B859C8581609C878B87AE0123
:10218000475F5F4F602FC7010E947B0F813B29F0A3
:10219000811102C00F5FD5CFD82E1D2DC1CFCF9298
:1021A000DF92FF920F931F93CF93DF9300D000D065
:1021B000CDB7DEB78C01F62E19821A821B821C82E3
:1021C000462F61E10E94FE0E4F2D60E1C8010E9482
:1021D000FE0E4F2D64E0C8010E94520F83E0C82E0E
:1021E000D12CAE014F5F5F4F6F2DC8010E94270FAA
:1021F000811114C089819A81AB81BC819D7F83301C
:102200009140A041B10551F064E670E080E090E0BB
:102210000E94C50181E0C81AD10819F74F2D64E169
:10222000C8010E94FE0E4F2D60E1C8010E94FE0E03
:1022300064E170E080E090E00E94C5010F900F9093
:102240000F900F90DF91CF911F910F91FF90DF9032
:10225000CF9008952F923F924F925F926F927F920C
:102260008F929F92AF92BF92CF92DF92EF92FF92A6
:102270000F931F93CF93DF93CDB7DEB7E8970FB6D9
:10228000F894DEBF0FBECDBFDC011A963C91311130
:1022900031C1522E842E962E3C01FC01E280F38047
:1022A000D701ED91FC910190F081E02D60E0C70134
:1022B00009958C010097E1F4E6ED3E2E832DE8961A
:1022C0000FB6F894DEBF0FBECDBFDF91CF911F9147
:1022D0000F91FF90EF90DF90CF90BF90AF909F90C5
:1022E0008F907F906F905F904F903F902F900895C8
:1022F000FC01C080D18037ED332EC114D104F1F23E
:102300005301F4E0AF0EB11CDC011196BC92AE9209
:1023100014965C92FE0131962F019F0148E050E037
:1023200060E0D30112968D919C910E947C0D382E15
:10233000F80114828111E1C08D8121ED322E8930A6
:1023400009F0BCCF2980D701ED91FC910280F38187
:10235000E02D282D41E0692DC7010995F301828701
:1023600094ED392E882309F4A9CF98859583682F99
:10237000828193810E94A00D382ED801CD92DC92EB
:10238000882371F0D701ED91FC910480F581E02D57
:10239000D3011A966C91C7010995F30112868ECF6D
:1023A000211006C0A114B10499F488ED382E86CF0F
:1023B000422D413208F040E250E09201F301628583
:1023C000828193810E947C0D382E811177CFEACFD4
:1023D000D30112962D903C9013971A961C91612F61
:1023E000C1010E94A106FC01892B09F465CF12836B
:1023F000B182A08282E083831F921F925F924F92EC
:1024000058E0852E912C68E0A62EB12CD12CC12C41
:1024100079E2E72E00E026E040EA612FC1010E9448
:10242000C30B382E0F900F900F900F90811146CF55
:102430008B81F3018387820120E048E050E06285D0
:10244000828193810E94560D382E811137CF4B81A6
:102450005C8120E0D3011A966C911A9712968D91A7
:102460009C910E94560D382E811128CF498150E051
:102470008E010F5D1F4F20E0F30162858281938101
:102480000E94560D382E811119CF1F921F921F9254
:102490001F92912C812CB12CA12CE12C0E8129E0D2
:1024A00040E0D3011A966C911A9712968D919C91E7
:1024B0000E94C30B382E0F900F900F900F90811138
:1024C000FDCE11E0F3018385811738F0412F68E0DC
:1024D000C3010E94520F1F5FF5CFD3010280F38129
:1024E000E02DEA58FF4F80818460808381E0509620
:1024F0008C93E4CE49ED342EE1CED182C082DECE83
:102500002F923F924F925F926F927F928F929F9203
:10251000AF92BF92CF92DF92EF92FF920F931F93F1
:10252000CF93DF93CDB7DEB7C358D1090FB6F89478
:10253000DEBF0FBECDBFDC0116963C9119ED311107
:1025400015C0B22E042FA62E3C01FC01248035803C
:10255000108ED101ED91FC910190F081E02D60E0B1
:10256000C10109952C010097E1F416ED812FCD579B
:10257000DF4F0FB6F894DEBF0FBECDBFDF91CF9116
:102580001F910F91FF90EF90DF90CF90BF90AF9091
:102590009F908F907F906F905F904F903F902F9083
:1025A0000895FC01E080F18017EDE114F104F1F2EF
:1025B0009301295F3F4FEE963FAF2EAFEE973183E9
:1025C0002083B4829E0126593F4F48E050E060E0EE
:1025D000D30114968D919C910E947C0D182F81112E
:1025E00087C1AB961FADAB97F201F182E082D101BA
:1025F000ED91FC910280F381E02D202F40E06A2DC7
:10260000C1010995F3018683882309F46FC1E2961D
:102610009FADE2979087682F848195810E94A00DDD
:10262000F82ED101ED91FC91882379F0D201149616
:102630001C920480F581E02DD30116966C91C101A6
:102640000995F30116821F2D91CFD30116966C9137
:10265000D20114961C920190F081E02DC1010995E0
:10266000009709F482CFFC01B48211118CC0EC9662
:10267000FFADEC97CF57DF4FF883C158D0402E0104
:1026800021E4420E511CC3010296CE57DF4F9983BD
:102690008883C258D040120190E1290E311CCF57D7
:1026A000DF4FB881C158D040FB1609F48AC02DE134
:1026B00031E0F20131832083CE57DF4F8881998149
:1026C000C258D04093838283148211861286158665
:1026D0001786168610A211A212A210A63682258293
:1026E0003086278234862386D30114960D90BC91C0
:1026F000A02DC258DF4FB983A883CE57D040F30135
:10270000F681C058DF4FF883C058D0408E010F5F6C
:102710001F4F2F2D49E050E06F2FCD010E94560D25
:1027200081112AC0AB80BC80450121E4A216B1040E
:1027300018F040E4842E912C5F924F9281E090E05B
:102740008C0F9D1F9F938F93D12CC12C32E0E32ED1
:102750000F2D26E040E8C058DF4F6881C058D040B8
:10276000C258DF4F88819981CE57D0400E94C30B59
:102770000F900F900F900F90D30152968C91823052
:1027800001F1F3948CCF133108F012E1412F50E0A6
:102790009E0126593F4FD30116966C9116971496B9
:1027A0008D919C910E947C0D182F882309F45FCF96
:1027B000D301ED91FC910480F581E02DC3010995D1
:1027C000D5CEF3011289123009F08EC08481958133
:1027D0000681EE962EAD3FADEE97232B71F0602F64
:1027E0000E94A106FC01892B41F00283EE968EAD7A
:1027F0009FADEE9791838083138368EE73E080E052
:1028000090E00E94C5011F921F921F921F92912C6F
:10281000812CB12CA12CD12CC12CE12CD3011F96E1
:102820000C911F9729E040E016966C91169714962C
:102830008D919C910E94C30B182F0F900F900F90B9
:102840000F908111B5CF68EE73E080E090E00E94B8
:10285000C5011F921F921F921F92F301018D2BE061
:1028600041E26681848195810E94C30B182F0F90ED
:102870000F900F900F9081119BCF1F921F921F926C
:102880001F9200E02AE041E2D30116966C91169760
:1028900014968D919C910E94C30BFE01EF5BFF4F3C
:1028A00083E291E091838083FF93EF93CE010196C1
:1028B0009F938F9380E4882E912C90E8A92EB12CC1
:1028C00022E2E22E26E041E8F301668184819581CF
:1028D0000E94C30B81E0D30157968C930FB6F894F6
:1028E000DEBF0FBECDBF42CE11ED62CF14ED3ECEA6
:1028F000F201F182E0825CCF0F931F93CF93DF93BD
:10290000EC0188819981009759F02A813B81261733
:10291000370730F081E0DF91CF911F910F9108953B
:102920008B016F5F7F4F0E94771E009759F099834C
:1029300088831B830A832C813D81232B59F7FC015B
:102940001082E8CF80E0E7CF6F927F928F929F92C4
:10295000AF92BF92CF92DF92EF92FF920F931F93AD
:10296000CF93DF9300D0CDB7DEB77C01CDB6DEB616
:10297000DC0157968C91811118C0912C892D0FB6CE
:10298000F894DEBE0FBECDBE0F900F90DF91CF91B9
:102990001F910F91FF90EF90DF90CF90BF90AF907D
:1029A0009F908F907F906F9008950E94F701F7019C
:1029B00083889488A588B688681979098A099B094B
:1029C00097FDDBCFADB6BEB64285838590E08134FE
:1029D000910508F045C09A83898389819A812DB732
:1029E0003EB7281B390B0FB6F8943EBF0FBE2DBF64
:1029F0008DB79EB701968C019E012F5F3F4FD70187
:102A000016966C91169714968D919C910E948C0B42
:102A1000982E811113C029813A812330310570F03D
:102A2000F70185859685009749F0DC01ED91FC91D1
:102A30000190F081E02D40E0B70109950FB6F894C0
:102A4000BEBE0FBEADBE0E94F701F701208D620F22
:102A5000711D811D911D638B748B858B968B8ECF21
:102A600080E490E0B8CF1F920F920FB60F9211241E
:102A70002F933F938F939F93AF93BF938091D001F8
:102A80009091D101A091D201B091D3013091CF01A9
:102A900023E0230F2D3758F50196A11DB11D20937A
:102AA000CF018093D0019093D101A093D201B09334
:102AB000D3018091D4019091D501A091D601B0911C
:102AC000D7010196A11DB11D8093D4019093D5012A
:102AD000A093D601B093D701BF91AF919F918F91F1
:102AE0003F912F910F900FBE0F901F90189526E8E1
:102AF000230F0296A11DB11DD2CF1F920F920FB6C8
:102B00000F9211248F939F938091E1009091E100A7
:102B1000937F9093E10083FF0FC01092E90091E052
:102B20009093EB001092EC0092E39093ED001092E2
:102B3000D90198E09093F00082FF22C093E0909337
:102B4000E9009091F200992319F09AE39093E8003C
:102B50009091C201992341F09091C20191509093BC
:102B6000C201911101C05D9A9091D801992341F061
:102B70009091D80191509093D801911101C0289A59
:102B800084FF18C08091E2008E7E81608093E20015
:102B90008091E1008F7E8093E1008091C3018E7E61
:102BA00080618093C3019F918F910F900FBE0F9012
:102BB0001F90189580FFF7CF8091E2008E7E806194
:102BC0008093E2008091E1008E7E8093E10080910D
:102BD000C3018E7E8160E5CF1F920F920FB60F92D8
:102BE0001124CF92DF92EF92FF920F931F932F93B6
:102BF0003F934F935F936F937F938F939F93AF9385
:102C0000BF93EF93FF93CF93DF93CDB7DEB76C976E
:102C1000DEBFCDBF1092E9008091E80083FF25C0A0
:102C200068E0CE0145960E94020382EF8093E8009F
:102C30008D8987FF39C09091E80090FFFCCF982FD5
:102C4000907609F034C19E894F89588D2F89F88C70
:102C5000911131C0803861F58091C4018093F100F9
:102C60001092F1008EEF8093E8006C960FB6F89406
:102C7000DEBF0FBECDBFDF91CF91FF91EF91BF912E
:102C8000AF919F918F917F916F915F914F913F9104
:102C90002F911F910F91FF90EF90DF90CF900F90A9
:102CA0000FBE0F901F9018959EEF9093E800C7CF2E
:102CB0001092F100D5CF913059F48111D3CF41302A
:102CC000510581F68091C4018D7F8093C401CACFE4
:102CD000933049F48111C6CF4130510519F68091E6
:102CE000C4018260F2CF953041F48091E80080FF0A
:102CF000FCCF20682093E300B5CF963009F0A9C03F
:102D00000B8D1C8D22E01092E9001092C0011092F0
:102D1000BF01F2122EC01092BE011092BD010E949E
:102D20009A031F8299E09983FA8291E09E8390EA48
:102D300098879AEF99872091BF013091C001275F52
:102D40003F4F3C832B838D831092E9001092C0018A
:102D50001092BF011093BE010093BD0149E050E005
:102D6000BE016F5F7F4F80E00E9431020E949A0394
:102D700079CF1093BE010093BD010E940F03DC01C7
:102D800012960D911C910115110509F451C1D8013C
:102D9000ED91FC910480F581E02DBE016B5E7F4FCB
:102DA000C8010995009709F03EC1F8010085118519
:102DB000EACFF3E0FF120EC08F89882309F440C0E8
:102DC000823061F440E860E180E191E00E941E18E9
:102DD000811148CF81E28093EB0047CF813029F405
:102DE00040E86BE084E091E0F1CF833099F70E94F6
:102DF0000F03DC011296ED90FC908E010F5F1F4FC8
:102E00006801E114F10479F0D701ED91FC9106809D
:102E1000F781E02DB801C7010995080F111DF701D1
:102E2000E084F184EECFD8011C92F60101900020DD
:102E3000E9F73197BF016C197D0940E0C601C6CFA3
:102E40006EEE70E0FB01449150E080E80E94310298
:102E500009CF973009F4BECF983021F481E08093F8
:102E6000F10000CF993009F0FDCE837009F0B2CFA8
:102E7000EDE0F1E081E031E096E32191222371F071
:102E80008093E9003093EB00DF0111972C912093A0
:102E9000EC009093ED008F5F873079F78EE7809399
:102EA000EA001092EA008F898093D901DBCE8B8DE6
:102EB0009C8D1092E9001092C0011092BF01909376
:102EC000BE018093BD01898D811192C08E899D893B
:102ED000913A49F4813209F07DCF47E050E064E057
:102EE00071E080E0B3CF913209F074CF833269F49E
:102EF0008F89988DB0E0A0E080930001909301014C
:102F0000A0930201B0930301ADCE803269F48091A9
:102F1000E80082FFFCCF67E084E091E00E940203BA
:102F20008BEF8093E8009ECE823209F09BCE8F8992
:102F300080930B01EEEFFFE7859194918B3F9C4DC1
:102F400051F1E0E0F8E08091040190910501A09139
:102F50000601B0910701803B9440A105B105F1F451
:102F600080910B0180FD1AC0EE3F8AE0F80789F5D9
:102F700087E797E791838083809160008093C10108
:102F800088E19BE00FB6F894A895809360000FBE8F
:102F90009093600067CEEEEFFAE0D5CF808191810B
:102FA0008737974709F05ECEA895809160008861C9
:102FB000809360008091C10180936000EE3F2AE021
:102FC000F20789F08091FE0A9091FF0A9183808335
:102FD00049CE808191818737980751F29093FF0AFB
:102FE0008093FE0AC5CF1092FF0A1092FE0A3ACED5
:102FF0000E940F03DC0112960D911C910115110521
:1030000009F4E8CED801ED91FC910190F081E02D1A
:10301000BE016B5E7F4FC8010995811123CEF80177
:1030200000851185EBCF181619060CF41BCED2CEF5
:10303000F1E0FF12BECE62EF70E004CFEF92FF929C
:103040000F931F93CF93DF93F82E192FE62E042FA3
:1030500081E0860F880F0E94030283E00E94030232
:10306000CF2DD12FEC0EFD2EF11CCE15DF05B9F0C2
:1030700007FF13C0FE0184910E940302182F80E015
:103080000E940302812321968111EFCFDF91CF911E
:103090001F910F91FF90EF9008958881EDCF81E00F
:1030A000F5CFCF931092DE011092DD0188EE93E010
:1030B000A0E0B0E08093DF019093E001A093E101F4
:1030C000B093E20189E291E09093DC018093DB010F
:1030D0008FEF9FEF9093E8018093E70180914A0280
:1030E000811113C010924502109244028AE991E0C6
:1030F00090934702809346028BE290E090934902BE
:103100008093480281E080934A0280913C028111C1
:103110002AC0C1E0C0932F02C093300285E392E041
:103120009093320280933102109234021092330253
:103130008BE391E090932C0280932B021092370244
:10314000109236021092390210923802C0933A025D
:10315000C0933B0281EC809335020E940F030E94D2
:103160000E01C0933C02E0913602F0913702309795
:1031700009F0D1C084E492E0909337028093360244
:103180008091380290913902209148023091490291
:10319000820F931F909339028093380281E891E067
:1031A00090938902809388021092900281E080932C
:1031B0009102109292028AE892E090938F0280939B
:1031C0008E0210928A0288E080938B028CE38093B7
:1031D0008C0210928D02E8E8F2E091E02AE832E0F9
:1031E00015869687178634872387359682E0E33DD8
:1031F000F807B1F71092FE0281E1809353022BE6AB
:1032000031E0309378022093770228E832E030935F
:103210007A02209379021092870210927B0288E052
:1032200080937C022CE320937D0290937E02809316
:103230007F0284E0809380021092810210928202C9
:1032400010928302109284021092850210928602DC
:10325000AEEDB2E0FD0190E080E021913191232BB1
:1032600009F062C0880F991FFC01E252FD4F87E709
:1032700092E09183808388E892E090936202809349
:10328000610287E491E090935E0280935D0285E69F
:1032900091E09093600280935F021092700210920E
:1032A00071021092720210927302109274021092C4
:1032B000760281E080936F0210926E021092640297
:1032C00088E0809365028CE3809366021092670227
:1032D0001092680284E08093690210926A02109250
:1032E0006B0210926C0290E080E02D913D91232BB7
:1032F00009F5880F991FFC01E252FD4F8DE592E020
:10330000918380838BE891E09093550280935402DF
:10331000CF910895FC01808191810097D9F784E4D1
:1033200092E0918380832CCF01968031910509F042
:1033300094CFA1CF019680319105B9F6E3CFCF9319
:10334000DF93CDB7DEB728970FB6F894DEBF0FBE78
:10335000CDBF789484B5826084BD84B5816084BD1E
:1033600085B5826085BD85B5816085BD80916E0023
:10337000816080936E001092810080918100826054
:103380008093810080918100816080938100809191
:1033900080008160809380008091910082608093A2
:1033A00091008091910081608093910080919000C4
:1033B0008160809390008091C10084608093C100FF
:1033C0008091C10082608093C1008091C1008160C2
:1033D0008093C1008091C30081608093C30080917D
:1033E000C00082608093C0008091C20081608093A1
:1033F000C20080917A00846080937A0080917A0084
:10340000826080937A0080917A00816080937A0054
:1034100080917A00806880937A001092D90110928E
:10342000C4011092C3018091D70081608093D700BE
:1034300080EA8093D80089B5806189BD89B58260B2
:1034400089BD09B400FEFDCF61E070E080E090E04E
:103450000E94C5018091D8008F7C80618093D80044
:103460008091E000807F8093E0008091E1008E7E7B
:103470008093E1008DE08093E200559A209A8FEFCF
:103480009FEF9093E8018093E7018AE090E0A0E04D
:10349000B0E08093DF019093E001A093E101B0934D
:1034A000E201269A0E9470081FB7F8948091C50126
:1034B00081115AC04DE651E0FA0194912CE831E0B7
:1034C000F9018491E92FF0E0EE0FFF1FE25BFE4F60
:1034D000A591B4919C91892309F037C0E2E3F1E012
:1034E0009491F9012491FA018491882309F42DC063
:1034F0009923E9F091509F30D0F4E92FF0E0ED5797
:10350000F54E0C944C1DF61AFA1A921AEE1AF21A8B
:10351000971A971A971AFD1A031B071B0B1B111BEF
:10352000971A151B909180009F7790938000E82F49
:10353000F0E0EE0FFF1FE05CFE4FA591B4918FB756
:10354000F8949C91292B2C938FBF81E10E94570105
:103550008CB580618CBD8CB580648CBD8FE00E9481
:10356000570180E10E9457018091C5018F5F8093D0
:10357000C5011FBF209A289A259868E188E80E9413
:10358000110960E288E70E94110960E088E70E9463
:10359000110910E000E088E60E94D7090F5F1F4F75
:1035A00080FF49C061EC88ED0E94110960E680ED62
:1035B0000E94110964E088EE0E94110988EE0E94C1
:1035C000D70982FFFBCF0E94B30A60E288EC0E9419
:1035D000110961E080E80E94110931C090918000DA
:1035E0009F7DA3CF90918000977F9FCF94B59F77C9
:1035F00094BD9DCF94B59F7DFBCF909190009F7718
:103600009093900094CF909190009F7DF9CF9091EE
:103610009000977FF5CF9091C0009F779093C00066
:1036200086CF9091C0009F7DF9CF9091C200977F87
:103630009093C2007CCF0F3F100709F0ACCF84E518
:1036400092E090936B0280936A021092520240E0E3
:1036500060E080E00E9423035EEF652E52E0752E4D
:1036600060E0A62E60E0B62E90E5292E20E9322EED
:1036700030EA532E40E8442E1092CC011092CD0136
:103680001092CE0183B1182F107285FD0CC088EC0A
:103690000E94D70985FF03C00E94B30A10E2612F80
:1036A00088EC0E9411098091DA01813009F4AAC0E6
:1036B00008F4ACC0823029F0833009F4B1C0D12CB9
:1036C00017C0D12C80915302807F803189F40E94F1
:1036D000F70168537F4F8F4F9F4F6093C6017093E0
:1036E000C7018093C8019093C901B0E2B09353021F
:1036F0008EEDE82E82E0F82E8701F80181919191FC
:103700008F01009739F0DC01ED91FC910680F78183
:10371000E02D09956016710681F78091530280347F
:1037200009F4B7C008F07FC0803209F49CC0803330
:1037300009F4A9C08131A9F41092FE02F701819128
:1037400091917F01009739F0DC01ED91FC910480AB
:10375000F581E02D09950E151F0581F782E1809313
:1037600053028BED91E00E947B04892B09F448C140
:103770000E94250497FD07C08093CA010E9425047A
:1037800097FF8093CB011A8219821C821B821E82B2
:103790001D8270E060E0CE0101960E947C142981B8
:1037A0003A818111AAC02115310519F0C9010E9481
:1037B000EE1D1A8219821E821D821C821B820E94AB
:1037C00025040D811E8197FDA0C08A30910509F462
:1037D0009CC08F8318860F5F1F4FB801CE010196E2
:1037E0000E947C14882359F329813A818D819E811E
:1037F000BE01695F7F4F820F931F0E944D1F1E8382
:103800000D83DDCF83E18093530259CF8091530222
:10381000807F803109F453CFA1E1A09353024FCFB1
:10382000DD24D3944FCF813509F443C0803809F4A7
:1038300052C0803509F095CF88EC0E94D70986FFE9
:1038400090CF81E5809353020E94F7016C5E7F4F19
:103850008F4F9F4F6093C6017093C7018093C8013B
:103860009093C9017ECF0E94F7010091C60110918B
:10387000C7012091C8013091C901601B710B820BF7
:10388000930B97FD6ECF61E088EE0E94110980E4F2
:1038900066CF88EE0E94D70980FD63CF88ED0E9435
:1038A000D709682F686088ED0E94110920925302A1
:1038B00058CF0E94F7010091C6011091C7012091D5
:1038C000C8013091C901601B710B820B930B97FDEE
:1038D00048CF409253022D2D40E060E088E892E00E
:1038E0000E94D00D882331F0823D09F43ACF5092E6
:1038F000530237CF3092530234CF1E821D826FEABB
:1039000071E0C9010E944D1F5ACFC980DA80C114ED
:10391000D10421F0760101151105E1F58D819E811B
:10392000892BB9F06BE971E089819A810E94441F6B
:10393000892B79F4B1E0B093520240E060E080E07E
:103940000E9423031092520240E060E080E00E9457
:1039500023038D819E81892B79F066EA71E089814C
:103960009A810E94441F892B39F440E06091CB0179
:103970008091CA010E94230389819A81009711F0E6
:103980000E94EE1DA114B10409F476CE0E9400003D
:103990006BCE74014701BFEF8B1A9B0AF701808140
:1039A000082E000C990B0E94091D892B91F70150DC
:1039B00011090C0D1D1DD8018C91082E000C990BBE
:1039C0000E94091D892B31F00E151F0518F00150BA
:1039D0001109F1CF0F5F1F4FA8014E195F095E83D8
:1039E0004D83CE14DF0420F4B701C6010E94341FBA
:1039F000E981FA818D819E81E80FF91F10828ECFB7
:103A00004091CE016091CD018091CC010E942303B1
:103A1000B9CF91110C94121D803219F08950855044
:103A2000C8F708959927882708952F923F924F92BB
:103A30005F926F927F928F929F92AF92BF92CF923E
:103A4000DF92EF92FF920F931F93CF93DF93CDB747
:103A5000DEB7CA1BDB0B0FB6F894DEBF0FBECDBFBF
:103A600009942A88398848885F846E847D848C8490
:103A70009B84AA84B984C884DF80EE80FD800C8199
:103A80001B81AA81B981CE0FD11D0FB6F894DEBF7C
:103A90000FBECDBFED010895EE0FFF1F0590F4910D
:103AA000E02D09940F931F93CF93DF9382309105FC
:103AB00010F482E090E0E0910103F091020330E025
:103AC00020E0B0E0A0E0309799F42115310509F429
:103AD0004AC0281B390B24303105D8F58A819B81D7
:103AE0006115710589F1FB0193838283FE0111C089
:103AF000408151810281138148175907E0F048172E
:103B0000590799F4109761F012960C931297139637
:103B10001C933296CF01DF91CF911F910F910895A1
:103B20000093010310930203F4CF2115310551F0E6
:103B30004217530738F0A901DB019A01BD01DF01EB
:103B4000F801C1CFEF01F9CF9093020380930103F5
:103B5000CDCFFE01E20FF31F8193919322503109E3
:103B600039832883D7CF2091FF0230910003232B84
:103B700041F42091150130911601309300032093F8
:103B8000FF0220911301309114012115310541F4F8
:103B90002DB73EB74091170150911801241B350BEA
:103BA000E091FF02F0910003E217F307A0F42E1B4F
:103BB0003F0B2817390778F0AC014E5F5F4F241791
:103BC000350748F04E0F5F1F509300034093FF02EC
:103BD000819391939FCFF0E0E0E09CCFCF93DF9370
:103BE0000097E9F0FC01329713821282A091010341
:103BF000B0910203ED0130E020E01097A1F42081A4
:103C00003181820F931F2091FF023091000328170A
:103C1000390709F061C0F0930003E093FF02DF91E0
:103C2000CF910895EA01CE17DF07E8F54A815B815D
:103C30009E0141155105B1F7E901FB83EA834991E2
:103C40005991C40FD51FEC17FD0761F48081918154
:103C50000296840F951FE90199838883828193815D
:103C60009B838A83F0E0E0E012968D919C911397FC
:103C70000097B9F52D913C911197CD010296820FD5
:103C8000931F2091FF02309100032817390739F65E
:103C9000309751F51092020310920103B093000384
:103CA000A093FF02BCCFD383C28340815181840F94
:103CB000951FC817D90761F44E5F5F4F88819981BE
:103CC000480F591F518340838A819B81938382834C
:103CD0002115310509F0B0CFF0930203E093010301
:103CE0009ECFFD01DC01C0CF13821282D7CFB0E09E
:103CF000A0E0EDE7FEE10C94171D8C01009751F454
:103D0000CB010E94521D8C01C801CDB7DEB7E0E1A6
:103D10000C94331DFC01E60FF71F9C012250310962
:103D2000E217F30708F49DC0D901CD91DC911197FA
:103D3000C617D70798F0C530D10530F3CE010497E8
:103D40008617970708F3C61BD70B2297C193D19309
:103D50006D937C93CF010E94EE1DD6CF5B01AC1A10
:103D6000BD0A4C018C0E9D1EA0910103B09102036F
:103D7000512C412CF12CE12C109731F58091FF0250
:103D8000909100038815990509F05CC04616570606
:103D900008F058C08091130190911401009741F4EC
:103DA0008DB79EB74091170150911801841B950B58
:103DB000E817F90708F055C0F0930003E093FF02FD
:103DC000F90171836083A0CF8D919C911197129618
:103DD0006C90129713967C901397A815B90559F516
:103DE0006C0142E0C40ED11CCA14DB0420F1AC010A
:103DF0004A195B09DA011296159780F06282738284
:103E000051834083D9016D937C93E114F10471F0E7
:103E1000D7011396FC93EE93129776CF22968C0FD0
:103E20009D1FF90191838083F301EFCFF09302038B
:103E3000E093010369CF4816590608F42C017D016F
:103E4000D3019ACFCB010E94521D7C01009749F00B
:103E5000AE01B8010E94341FC8010E94EE1D870107
:103E600053CF10E000E050CFFB01DC0102C0019015
:103E70000D9241505040D8F70895DC0101C06D9378
:103E800041505040E0F70895FB01DC018D91019015
:103E900080190110D9F3990B0895FB01DC01019001
:0C3EA0000D920020E1F70895F894FFCF88
:103EAC00FFFFFFFF00E100000000000000C1808167
:103EBC0000000000000303800000000000BA0600B0
:103ECC00000000FD0700000000E103CB030204F733
:103EDC00037B04070457040000000095040E05D36F
:103EEC0004B804000000008012E6085308A4145023
:103EFC0008E508E3084B0846083D0872083A08FE36
:103F0C0007FEFF00003008000000002A11E60859E7
:103F1C000529108005CF10E3087B05B806000000CA
:103F2C0000A1064C062A06000000007C08E208E20C
:103F3C0008E208E208E208E208E2086D6F757365B2
:103F4C00636C69636B006D6F76656D6F757365007F
:00000001FF
